:020000040800F2
:10000000FCFF0020E9140000E1140000E1140000EE
:10001000E1140000E1140000E1140000E11400000C
:10002000E1140000E1140000E1140000E1140000FC
:10003000E1140000E1140000E1140000E1140000EC
:10004000E1140000E1140000E1140000E1140000DC
:10005000E1140000E1140000E1140000E1140000CC
:10006000E1140000E1140000E1140000E1140000BC
:10007000E1140000E1140000E1140000E1140000AC
:10008000E1140000E1140000E1140000E11400009C
:10009000E1140000E1140000E1140000E11400008C
:1000A000E1140000E1140000E1140000E11400007C
:1000B000E1140000E1140000E1140000E11400006C
:1000C000E1140000E1140000E1140000E11400005C
:1000D000E1140000E1140000E1140000E11400004C
:1000E000E1140000E1140000E1140000E11400003C
:1000F000E1140000E1140000E1140000E11400002C
:10010000E1140000E1140000E1140000E11400001B
:10011000E1140000E1140000E1140000E11400000B
:10012000E1140000E1140000E1140000E1140000FB
:10013000E1140000E1140000E1140000E1140000EB
:10014000E1140000E1140000E1140000E1140000DB
:1001500083B0CDF800E000F0FF031A09104603F069
:100160000F02134614E0194A02921FE0184A029245
:100170001CE0184A029219E0174A029216E0174A48
:10018000029213E0164A029210E0164A02920DE023
:100190000028E8D00128E9D00228EAD00328EBD0D3
:1001A0000428ECD00528EDD00628EED0012212B2AA
:1001B0009A40ADF8042002980A46BDF8041000F0F9
:1001C0003BF9DDF800E003B0704700BF00080140D4
:1001D000000C0140001001400014014000180140D3
:1001E000001C01400020014001480068704700BF2A
:1001F0002801002081B0CDF800E0012252B23E4932
:100200000A6000F268010B686FF0006103EA010206
:10021000144603F00061C90E0B4602F00041B1F133
:10022000004F02D135490A6801E035490A6804F4F3
:100230007021090C0E464FF6FF7104EA01010D46CC
:1002400004F44011B1F5401F0DD16FF0706102EA66
:1002500001010E462A490A686FF070610A40284978
:100260000A60324616E004F48011B1F5801F09D10E
:100270004FF00301B140C94302EA010141F070614E
:100280000A4607E0610D090105FA01F1C9430A4078
:1002900042F070622BB1610D090105FA01F10A43C8
:1002A000FFE704F00041B1F1004F02D113490A60A9
:1002B00001E013490A6040F2000A81464FEA8A01D0
:1002C00009EB01010968B1F1FF3F10D009F13401D8
:1002D0004FEA8A03C91809680A4609EB030109684D
:1002E00008461146FFF734FF0AF1010AE6E7DDF898
:1002F00000E001B0704700BF000342421C00014013
:100300000400014081B0194900EA010108460022B9
:100310000EE0042022E0082020E010201EE0202033
:100320001CE040201AE0802018E040F2001015E0A8
:100330000F498842EDD00F498842ECD00E498842DF
:10034000EBD00E498842EAD00D498842E9D00D49E8
:100350008842E8D00C498842E7D010460B4909682A
:1003600041EA000209490A6001B0704700FCFFFF42
:1003700000080140000C0140001001400014014041
:1003800000180140001C01400020014018100240EC
:1003900082B0CDF800E0034619460191FFF724FF33
:1003A00040F2E83100FB01F201990A601F49097827
:1003B000C1F30311C8B21E4909180878C0B21A1D4A
:1003C0001968C140116019490988C1F3022188B236
:1003D000174909180878C0B203F20802191D096804
:1003E000C140116011490988C1F3C22188B2104986
:1003F00009180878C0B203F20C02191D0968C1403F
:1004000011600A490988C1F3813188B20949091884
:100410000978C8B203F2100203F20C010968B1FBBB
:10042000F0F11160DDF800E002B070470410024006
:10043000051800000C14000081B0CDF800E08CB26B
:100440001546774B00EA03031E461846FFF75AFF8E
:10045000B4F1FF0F0CD1734B9D4203D14FF03333F6
:100460003360D9E0422D03D14FF044333360D3E001
:100470004FF6FF739C4214D16A4B9D4207D14FF057
:1004800033333360341D4FF033332360C4E0422DE7
:1004900007D14FF044333360341D4FF044332360B1
:1004A000BAE00021002005F001030BB100211DE09E
:1004B00005F0020333B105F4C0730BB1082100E06D
:1004C000042113E005F0040333B105F020030BB160
:1004D000042100E0002109E005F0080333B105F034
:1004E00020030BB10C2100E00821FFE74E4B05EA89
:1004F00003030BB1032009E005F400730BB10220E4
:1005000004E005F480630BB10120FFE705F00C0364
:100510000BB10143FFE704F0FF039BB2002B3BD07C
:10052000376800201FFA84F832462E4608282CD25D
:100530004FF0010303FA00F408EA0403A34222D1B6
:1005400085004FF00F03AB40DB4307EA030401FAD9
:1005500005F344EA03031D4606F48173B3F5817F76
:1005600005D102F214044FF001038340236006F02A
:100570008203822B05D102F210044FF00103834065
:1005800023602F46FFE7401CD0E717601FFA88F072
:100590000F463146164602E00F462946A0B2B0F19A
:1005A000FF0F39D9331DD3F800800022082A30D23A
:1005B00002F208044FF0010303FA04F400EA040312
:1005C000A34224D195004FF00F03AB40DB4308EA70
:1005D000030807FA05F348EA030801F48173B3F549
:1005E000817F07D106F2140502F208044FF00103DF
:1005F000A3402B6001F08203822B07D106F2100585
:1006000002F208044FF00103A3402B60FFE7521CE5
:10061000CCE7331DC3F80080DDF800E001B070477F
:1006200000FCFFFF140008000008080089B0CDF8A6
:1006300000E0834698B28C46BDF824100A9E04ACB4
:10064000ADF80410ADF808002046FFF7A1FEBDF894
:100650000800BDF80410644CA34512D101256DB209
:10066000624C2560624D634C2560634D634C256090
:10067000634D644C2560644D644C2560079C039475
:1006800056E0634CA34512D101256DB2614C256043
:10069000614D584C2560614D584C2560604D594C5A
:1006A0002560604D594C2560069C039440E05E4CEB
:1006B000A34512D101256DB25C4C25605C4D4D4CBB
:1006C00025605C4D4D4C25605B4D4E4C25605B4D6F
:1006D0004E4C2560069C03942AE0594CA34512D148
:1006E00001256DB2574C2560574D424C2560574D42
:1006F000424C2560564D434C2560564D434C256079
:10070000069C039414E0544CA34511D101256DB20D
:10071000524C2560524D374C2560524D374C256068
:10072000514D384C2560514D384C2560069C039442
:10073000ADF80410ADF808003046FFF75BFDBDF8DA
:100740000800BDF804100BF1100500242C600BF11B
:1007500010052C680C432C600BF10C0500242C6058
:1007600018B140F4806080B2FFE70BF10C052C68F3
:1007700004432C600BF10C060125346865F34D34FD
:1007800034600BF10C060125346865F3C304346052
:100790000BF10C060125346865F3820434600BF11B
:1007A000140500242C60039D192465434FEA8C0432
:1007B000B5FBF4F76424B7FBF4F42601350964248F
:1007C0006C433C1B240104F232056424B5FBF4F4B1
:1007D00004F00F0446EA04040BF10805A4B22C60EF
:1007E000DDF800E009B070470038014038034242AC
:1007F000C90800002C010020FFFFFFFF300100208E
:10080000FFFFFFFF34010020FFFFFFFF3801002042
:1008100000440040C4034242AD080000FFFFFFFF58
:10082000FFFFFFFFFFFFFFFF00480040C8034242F9
:1008300091080000FFFFFFFFFFFFFFFFFFFFFFFF2B
:10084000004C0040CC03424201090000FFFFFFFFC3
:10085000FFFFFFFFFFFFFFFF00500040D0034242B9
:10086000E5080000FFFFFFFFFFFFFFFFFFFFFFFFA7
:1008700081B0ADF800100146BDF800000B68C3F36D
:10088000C01202B9FAE70A1D106001B07047FFFFFD
:1008900081B0CDF800E081B20348FFF7E9FFDDF851
:1008A00000E001B0704700BF0048004081B0CDF8C3
:1008B00000E081B20348FFF7DBFFDDF800E001B0A4
:1008C000704700BF0044004081B0CDF800E081B225
:1008D0000348FFF7CDFFDDF800E001B0704700BF2F
:1008E0000038014081B0CDF800E081B20348FFF745
:1008F000BFFFDDF800E001B0704700BF00500040CE
:1009000081B0CDF800E081B20348FFF7B1FFDDF818
:1009100000E001B0704700BF004C00400148006893
:10092000704700BF1C81214201480068704700BF2A
:100930002801224201480068704700BF34812242EA
:1009400001480068704700BF2C012242014800683E
:10095000704700BF0001214201480068704700BF96
:100960003001224201480068704700BF080122425E
:1009700001480068704700BF20812242014800689A
:10098000704700BF1881214201480068704700BFCE
:100990002481224201480068704700BF10012142B3
:1009A00001480068704700BF288122420148006862
:1009B000704700BF1401214281B0CDF800E0044A25
:1009C00089B2FFF739FDDDF800E001B0704700BFE4
:1009D0001400080081B0CDF800E04FF0420289B267
:1009E000FFF72AFDDDF800E001B07047014800681C
:1009F000704700BF3081224201480068704700BF45
:100A00003081224201480068704700BF18812142AE
:100A100001480068704700BF1C81214201480068FE
:100A2000704700BF1881224201480068704700BF2C
:100A30001481224281B0CDF800E0019D2C4610B413
:100A400008B493B28AB201460348FFF7EFFD02B043
:100A5000DDF800E001B0704700380140014800684F
:100A6000704700BF2801224201480068704700BF5C
:100A70000C01224201480068704700BF38812242C1
:100A800081B0CDF800E0019D2C4610B408B493B2BB
:100A90008AB201460348FFF7C9FD02B0DDF800E065
:100AA00001B070470048004001480068704700BF2F
:100AB0003001224281B0CDF800E0019D2C4610B4F7
:100AC00008B493B28AB201460348FFF7AFFD02B003
:100AD000DDF800E001B070470044004001480068C4
:100AE000704700BF2C01224281B00A4681B200202B
:100AF0008DB21146052805D20B1820221A70401C11
:100B0000C0B2F7E70B1800221A70401EC0B20C18D2
:100B10000A23B5FBF3F203FB125292B23032227079
:100B20000A22B5FBF2F292B295B202B902E0401E7F
:100B3000C0B2ECE701B0704781B0CDF800E0034CE3
:100B40002468A047DDF800E001B0704744010020B0
:100B500081B0CDF800E0094902B440F2000340F250
:100B6000000240F20001FFF7A5FF01B0044A054969
:100B70000A600020DDF800E001B070474C1600006C
:100B8000AD0800002401002081B0CDF800E0094943
:100B900002B440F2000340F2000240F20001FFF70D
:100BA00049FF01B0044A05490A600020DDF800E071
:100BB00001B07047B8160000C908000024010020E9
:100BC00081B0CDF800E0094902B440F2000340F2E0
:100BD000000240F20001FFF76DFF01B0044A054931
:100BE0000A600020DDF800E001B070474C160000FC
:100BF000AD0800002401002081B0CDF800E0A9E09C
:100C0000012905D140F210016548FFF7E3FE04E039
:100C100040F210016248FFF7CFFEBBE0012905D189
:100C200040F204015F48FFF7D5FE04E040F2040102
:100C30005C48FFF7C1FEADE0012905D142F2000199
:100C40005948FFF7C7FE04E042F200015648FFF79B
:100C5000B3FE9FE0012905D140F200415148FFF762
:100C6000B9FE04E040F200414E48FFF7A5FE91E0D6
:100C7000012905D140F600014A48FFF7ABFE04E028
:100C800040F600014748FFF797FE83E0012905D1B0
:100C900041F200014348FFF79DFE04E041F20001EC
:100CA0004048FFF789FE75E0012905D140F20101B6
:100CB0003B48FFF78FFE04E040F201013848FFF7A0
:100CC0007BFE67E0012905D140F200413648FFF77D
:100CD00081FE04E040F200413348FFF76DFE59E029
:100CE000012905D140F200212F48FFF773FE04E0EF
:100CF00040F200212C48FFF75FFE4BE0012905D1AF
:100D000040F200112848FFF765FE04E040F20011B0
:100D10002548FFF751FE3DE0012905D140F2400191
:100D20002248FFF757FE04E040F240011F48FFF75A
:100D300043FE2FE0012905D140F280011B48FFF757
:100D400049FE04E040F280011848FFF735FE21E03B
:100D5000012020E000283FF453AF01283FF45EAFAC
:100D600002283FF469AF03283FF474AF04283FF42E
:100D70007FAF05283FF48AAF06283FF495AF0728D8
:100D8000A0D00828ACD00928B8D00A28C4D00B2895
:100D9000D0D0DDE70020DDF800E001B0704700BFF3
:100DA000000801400010014000140140000C014007
:100DB00081B0CDF800E0A9E0012905D140F2200181
:100DC0006548FFF707FE04E040F220016248FFF7A4
:100DD000F3FDBBE0012905D140F208015F48FFF7B0
:100DE000F9FD04E040F208015C48FFF7E5FDADE0E5
:100DF000012905D144F200015948FFF7EBFD04E059
:100E000044F200015648FFF7D7FD9FE0012905D1C4
:100E100040F200415148FFF7DDFD04E040F200419F
:100E20004E48FFF7C9FD91E0012905D140F60001C8
:100E30004A48FFF7CFFD04E040F600014748FFF7BE
:100E4000BBFD83E0012905D141F200014348FFF7D2
:100E5000C1FD04E041F200014048FFF7ADFD75E03F
:100E6000012905D141F200013D48FFF7B3FD04E03F
:100E700041F200013A48FFF79FFD67E0012905D1E3
:100E800040F600013648FFF7A5FD04E040F60001FA
:100E90003348FFF791FD59E0012905D140F24001A7
:100EA0002F48FFF797FD04E040F240012C48FFF780
:100EB00083FD4BE0012905D140F220012848FFF7CE
:100EC00089FD04E040F220012548FFF775FD3DE073
:100ED000012905D140F240012248FFF77BFD04E0E3
:100EE00040F240011F48FFF767FD2FE0012905D1BF
:100EF00040F280011B48FFF76DFD04E040F28001E5
:100F00001848FFF759FD21E0012020E000283FF4B8
:100F100053AF01283FF45EAF02283FF469AF0328C6
:100F20003FF474AF04283FF47FAF05283FF48AAF45
:100F300006283FF495AF0728A0D00828ACD0092890
:100F4000B8D00A28C4D00B28D0D0DDE70020DDF8C7
:100F500000E001B0704700BF0008014000100140F0
:100F600000140140000C014081B0CDF800E00949B7
:100F700002B440F2000340F2000240F20001FFF729
:100F80007FFD01B0044A05490A600020DDF800E059
:100F900001B07047241700009108000024010020D0
:100FA00000F2300303F218010A6804490A6003F2F0
:100FB0001C010A6802490A60704700BF4001002016
:100FC0004401002081B0CDF800E00178CCB2A0B29D
:100FD000034C2468A0470020DDF800E001B0704712
:100FE0002401002081B0CDF800E0034C2468A04724
:100FF000DDF800E001B070474001002081B0CDF87D
:1010000000E05FFA81F95FFA82FA0FE05FFA8AF195
:101010005FFA89F0FFF7F0FD0DE05FFA8AF15FFA01
:1010200089F0FFF7C5FE06E0012004E00028EDD0BE
:101030000128F2D0F8E7DDF800E001B07047FFFFCB
:1010400081B0CDF800E0FFF7CDFF49490870FFF708
:1010500073FD484908704648007801281BD145486F
:101060000078012817D144480078012805D1434968
:10107000B1F900005A30088009E03F4800780328A1
:1010800005D13E49B1F900005A380880FFE7022136
:101090003948017058E036480078D0B935480078B2
:1010A000012816D13448007828B93449B1F9000034
:1010B0005A30088009E030480078022805D12F49CD
:1010C000B1F900005A380880FFE701212A48017071
:1010D0003AE027480078012819D126480078B0B9AD
:1010E00025480078022805D12449B1F900005A307A
:1010F000088008E02048007828B92049B1F90000AC
:101100005A380880FFE703211B4801701CE018488B
:101110000078C8B917480078B0B917480078032894
:1011200005D11649B1F900005A30088009E012488B
:101130000078012805D11149B1F900005A3808801A
:10114000FFE700210C4801700C48B0F9000010B90D
:10115000002000B208E00948B0F9001040F2681021
:1011600000B291FBF0F040B2DDF800E001B0704752
:101170001500002022010020230100203C01002056
:1011800081B0CDF800E00E46002183B2002805DAD8
:101190000121404280B280B28FB201E098B28FB29A
:1011A0003146FFF7A1FC06213446B8B2002908D920
:1011B00063184A1E92B2A21812781A70491E89B298
:1011C000F4E72022227070B1002081B2204642183C
:1011D0001278202A02D1491C89B2F8E74A1E92B23D
:1011E00083182D221A70DDF800E001B07047FFFF70
:1011F00081B0CDF800E0FFF7F5FE1C490870FFF75D
:101200009BFC1B49087019480078012807D1184831
:101210000078012803D10221164801701EE013480E
:10122000007838B912480078012803D1012111480B
:10123000017013E00D480078012806D10C480078B1
:1012400018B903210B48017008E00848007828B954
:101250000748007810B9002106480170002109B242
:1012600005480180DDF800E001B07047150000205E
:1012700022010020230100203C01002083B0CDF892
:1012800000E0024610460D228DF808200A228DF853
:1012900009201FE0FFF796FE23E002782AB10190B3
:1012A000FFF790FE0198401CF7E71AE002782AB198
:1012B0000190FFF787FE0198401CF7E702AA10464D
:1012C000FFF780FE0DF109021046FFF77BFE08E0F4
:1012D000062007E00029DDD00129DED00229E5D073
:1012E000F6E70020DDF800E003B0704781B0CDF8EC
:1012F00000E0FFF755FEDDF800E001B07047FFFFAA
:1013000081B0CDF800E011E00846FFF72DFE16E0B1
:101310000846FFF71DFC12E00846FFF735FC0EE01B
:101320000846FFF74DFC0AE0012008E00028EBD05A
:101330000128EDD02028EFD03028F1D0F4E7DDF8F7
:1013400000E001B07047FFFF81B0CDF800E0FFF78B
:1013500077FE0F4908800F49B1F90010814212D081
:101360000B48B0F900000C49FFF70AFF0B480121B8
:10137000FFF784FF02210848FFF780FF0448B0F917
:10138000001004480180DDF800E001B0704700BFA4
:10139000200000201600002022000020180000205D
:1013A00081B01548006840F00101134801601349FD
:1013B0001348016010480168124801400E4801605E
:1013C0000D4801686FF4802001400B4801600C4813
:1013D00001686FF4FE000140094801600648016899
:1013E0006FF0A0500140044801604FF00001064832
:1013F000016001B0704700BF001002400000FFF024
:1014000004100240FFFFF6FE2C1002400204060802
:1014100081B0CDF800E0012207210020FFF7EEFDAA
:10142000002206210020FFF7E9FD42F28051202032
:10143000FFF766FF09480221FFF720FF44F67F7798
:10144000C0F2120700BF00BF7F1EFDD100BF00BF6A
:1014500000BFDDF800E001B0704700BF00000020D1
:1014600081B0CDF800E00448FFF740FFFFF7C0FE71
:10147000DDF800E001B070479017000081B01CF863
:10148000019B0BF8019BBBEB0A0FF8D101B0704731
:1014900081B04FF000094FF0000CBDEB0A0F04DCE7
:1014A000BDEB0B0F01DBD446EA464BF8049BBBEBCC
:1014B0000A0FFAD1BCEB0A0F05DDE246D9F800B0FD
:1014C0000BF1040BF1E701B07047FFFF81B0024957
:1014D0000248016001B07047401901002801002056
:1014E00081B0FEE701B0704700F00EF800F0E6F9B9
:1014F000FFF7ECFF00F094F9FFF78AFFFFF7B0FF6A
:10150000FFF722FFFCE7FEE781B0CDF800E0464A96
:10151000464B474C47494BF68030814206D94648F6
:10152000006840F002014448016011E045F6C050F7
:10153000814206D94048006840F001013E48016000
:1015400006E03D4801686FF0070001403A4801603D
:10155000FFF726FF3948036039480460394802EA3A
:1015600000013948016002F0010040B119463648D7
:10157000006800F00200002800D1F8E700E01946FA
:1015800002F4803040B10B462F48006800F4003070
:10159000002800D1F8E700E00B4602F0805068B167
:1015A0002948006840F080512748016026480068BB
:1015B00000F00050002800D1F8E7FFE702F080605B
:1015C00078B12148006840F080611F4801601146F1
:1015D0001A461D48006800F00060002800D1F8E7B6
:1015E00001E011461A4601F0807070B1164800689B
:1015F00040F080711448016011461348006800F003
:10160000007000B9F9E70A46FFE70C48006800F0EF
:101610000C01900000F00C00814200D0F5E7DDF8ED
:1016200000E001B0704700BF8100010502841D0089
:10163000440601004019010000200240041002404D
:101640002C100240FFFF0F00001002403500000088
:1016500036000000FFFFFFFF000000000000000058
:10166000000000000000000000000000000000007A
:10167000000000000000000000000000000000006A
:101680001808000018000000000000000000000022
:10169000000000000000000000000000000000004A
:1016A000000000000000000000000000000000003A
:1016B0000000000008000008090000000A00000007
:1016C000FFFFFFFF0000000000000000000000001E
:1016D000000000000000000000000000000000000A
:1016E00000000000000000000000000018080000DA
:1016F00018000000000000000000000000000000D2
:1017000000000000000000000000000000000000D9
:1017100000000000000000000000000000000000C9
:10172000040000003800000039000000FFFFFFFF48
:1017300000000000000000000000000000000000A9
:101740000000000000000000000000000000000099
:101750000000000000000000180800001800000051
:101760000000000000000000000000000000000079
:101770000000000000000000000000000000000069
:10178000000000000000000000000000300014080D
:10179000FFFFFFFFFFFFFFFFFFFFFFFFFFFFFFFF59
:1017A000FFFFFFFFFFFFFFFFFFFFFFFFFFFFFFFF49
:1017B000FFFFFFFFFFFFFFFFFFFFFFFFFFFFFFFF39
:1017C000950900006509000035090000290900009D
:1017D00041090000590900004D090000A10900005D
:1017E00089090000710900007D0900001D09000041
:1017F0002D2D2D2053797374656D20496E746920E9
:101800002D2D2D2000000000000102030401020321
:101810000406070809FF000020537465703A200091
:1018200000B5DFF824B0DFF824A0DFF824C0FFF70C
:1018300025FEDFF820B0DFF820A0DFF820C0FFF79A
:101840001DFE00BD704700BF0000002015000020F5
:10185000F0170000160000202000002016180000DD
:10186000FFFFFFFFFFFFFFFFFFFFFFFFFFFFFFFF88
:10187000FFFFFFFFFFFFFFFFFFFFFFFFFFFFFFFF78
:10188000FFFFFFFFFFFFFFFFFFFFFFFFFFFFFFFF68
:10189000FFFFFFFFFFFFFFFFFFFFFFFFFFFFFFFF58
:1018A000FFFFFFFFFFFFFFFFFFFFFFFFFFFFFFFF48
:1018B000FFFFFFFFFFFFFFFFFFFFFFFF00B5DFF8A8
:1018C00010B0DFF810A0FFF7E3FD00BD704700BFC8
:1018D0000000002048010020FFFFFFFFFFFFFFFF87
:00000001FF
